:020000040000FA
:10000000020457752362E4F5247525FF752601F572
:1000100027F528FB7A0079237579027D061206EA16
:10002000752360752401E4F525FB7A007923757941
:10003000017D030206EA41000C000002022030812B
:10004000FD12074890000174AAF0A374FFF0A37496
:10005000ABF0A374A0F0E4A3F0A3F0A3F0A3F0A38B
:10006000F0A3F012083CD2037F011207BB90000DF1
:100070001205E30007A120E4FFFEFDFC90000DE067
:10008000F8A3E0F9A3E0FAA3E0FBD31205C64024ED
:1000900090000DE0FCA3E0FDA3E0FEA3E024FFFF41
:1000A000EE34FFFEED34FFFDEC34FFFC90000D124A
:1000B00005D780C37511C07F1C12084C12082A7F17
:1000C0000C1208C2750901C290E5086007E4F50842
:1000D000B28180FCE5096003E4F50990000CE014AE
:1000E00070030201911470030201A924026003024B
:1000F000020EC29012077390000D1205E3000186F4
:10010000A0E4FFFEFDFC90000DE0F8A3E0F9A3E001
:10011000FAA3E0FBD31205C6402490000DE0FCA337
:10012000E0FDA3E0FEA3E024FFFFEE34FFFEED348C
:10013000FFFDEC34FFFC90000D1205D780C31205C3
:100140005E12064D90001CEEF0A3EFF090001CE054
:10015000FCA3E0900009F0ECA3F012061490001E3E
:10016000EEF0A3EFF090001EE0FCA3E0900005F09D
:10017000ECA3F01207D890001EEEF0A3EFF0900071
:100180001EE0FCA3E0900007F0ECA3F01206B8809C
:100190007D7F011208057E007F017D0A1203C6E4FF
:1001A000FF120805120003806590000D1205E300A0
:1001B0000222E0E4FFFEFDFC90000DE0F8A3E0F970
:1001C000A3E0FAA3E0FBD31205C6402490000DE0A3
:1001D000FCA3E0FDA3E0FEA3E024FFFFEE34FFFE5E
:1001E000ED34FFFDEC34FFFC90000D1205D780C309
:1001F000120865E4F5C1D280D281D2907F801204CA
:10020000E343C1C112083CD2037F011207BB900037
:100210000CE004F0E0640360030200C9F00200C9CE
:10022000C0E0C0F0C083C082C0D075D000C000C0A4
:1002300001C002C003C004C005C006C00785A721D5
:1002400075A700E5C054F0700302036224F0700348
:1002500002038924F0700302031A24E070030202EF
:10026000F824F0700302038924D0606524C0601E66
:1002700024E060030203A1900015E0F5C29000178E
:10028000E0700343C201E5C213920002035C30C177
:1002900039300010900016E014F060030203A6C28B
:1002A000C10203A6900017E06015900012E0FF0461
:1002B000F0A807E6F5C2900017E014F00203A6903C
:1002C0000016E0602BD2C50203A67F0112089580BC
:1002D00022900011E0FF04F0A807A6C2900016E0EB
:1002E000600C14F060030203A6C2C10203A6C2C1DF
:1002F0001208CCD2C402039720C1030203A69000C7
:1003000019E014F0600F900014E0FF04F0A807E675
:10031000F5C20203A67F030203A330C21390001AA2
:10032000E0FF14F0EF6004D2028005E4FF120895AC
:10033000E5C213B39200200003200105900018E4E9
:10034000F0200018900018E070032001031208D07C
:10035000900014E0FF04F0A807E6F5C2C2C5D20180
:100360008044900013E0F8900018E0FF04F0E82FBC
:10037000F8A6C290001BE0FF900018E06F702712F3
:1003800008D0900018E4F0801D300009900018E0BB
:1003900060031208D0C2C4A20292C5C202C2018088
:1003A000057F02120895C2C08521A7D007D006D0CC
:1003B00005D004D003D002D001D000D0D0D082D05C
:1003C00083D0F0D0E0328D23AB07AA0690002174D1
:1003D00001F0E4A3F0A3F0752466F0900023E0FFA1
:1003E000C39523505EEB2FF582E43AF583E0F57474
:1003F0009000227408F0900022E0FFD39400403B6C
:1004000090002074C0F0EF14FF74017E00A807086C
:100410008005C333CE33CED8F9FFEF557460079013
:100420000020E044FCF0900020E0FFA3E02424F84A
:10043000A607E004F0A3E014F080BB900023E004E2
:10044000F080987B007A007924E52375F008A404F5
:10045000FD7579010206EA787FE4F6D8FD75817EA4
:1004600002049E02003EE493A3F8E493A34003F643
:100470008001F208DFF48029E493A3F85407240CE8
:10048000C8C333C4540F4420C8834004F4568001C9
:1004900046F6DFE4800B0102040810204080900043
:1004A00036E47E019360BCA3FF543F30E509541F3E
:1004B000FEE493A360010ECF54C025E060A840B8CD
:1004C000E493A3FAE493A3F8E493A3C8C582C8CA4B
:1004D000C583CAF0A3C8C582C8CAC583CADFE9DE1E
:1004E000E780BEA2AFE433F523C2AF85B825AEA93D
:1004F00075A91453B6BF75B801E5A930E7FBE50C43
:100500004FF5B58EA943B64085B52475B5207F0457
:1005100012085AEF30E20CE52420E207E5B5422448
:1005200075B520E52420E204EF30E203750901E50A
:100530002420E304EF30E503750801E52430E103EE
:10054000750A01E52430E003750B018525B8E52324
:1005500024FF92AFE52430E4047FFFDFFE22752301
:10056000117524117525017B007A007923757901B5
:100570007D031206EA7523117524607525DD752645
:10058000C77527C87B007A0079237579017D05122C
:1005900006EA752311752420E4F525F526FB7A007B
:1005A00079237579017D041206EA752311752431CA
:1005B000E4F525752614752701FB7A0079237579F2
:1005C000017D050206EAEB9FF5F0EA9E42F0E99D07
:1005D00042F0E89C45F022ECF0A3EDF0A3EEF0A38E
:1005E000EFF022A8828583F0D083D0821205FA1220
:1005F00005FA1205FA1205FAE473E493A3C583C55C
:10060000F0C583C8C582C8F0A3C583C5F0C583C83B
:10061000C582C822E4F50D7523E375248075258015
:100620007D237B0E757D03F57E7F80120686E50DAA
:1006300060FCE4F50D7B0EF57D757E02FD7F80127A
:100640000686E50D60FCE50FFEE50EFF22E4F50DE4
:100650007523E57524807525807D237B0E757D03CC
:10066000F57E7F80120686E50D60FCE4F50D7B0EBD
:10067000F57D757E02FD7F80120686E50D60FCE546
:100680000FFEE50EFF22AEA7E4F5A7900015EFF0F0
:10069000900012EDF0900011EBF0900017E57DF066
:1006A000900016E57EF090001A740AF0300104D232
:1006B000028002D2C58EA722E4FF90000274FFF0F0
:1006C000E4FE74012EF582E43400F583E06207E471
:1006D000FDEF30E0036307B1EFC313FF0DBD08F179
:1006E0000EBE0ADE900002EFF0228B758A768977C3
:1006F000AF05E4F50DAD777B0E8F7DF57E7FE012C3
:100700000686E50D60FCE4F50DAD777B0EF57D8585
:10071000797E7FE0120686E50D60FC22AFA9AEB2BD
:1007200075A904E5A9C330E701D350F753B27FE4BC
:10073000F5CE75B52C0000EE548042B28FA9E5A924
:10074000C330E701D350F72285A72312088C120883
:10075000AD12086F1208A61208C812079912088372
:100760001207F21208791208B41208BB12071C858E
:1007700023A7227523107B007A007923E4F5797D85
:10078000011206EA752360E4F524F525FB7A007969
:10079000237579017D030206EA75AC0575AD08E5A0
:1007A000AC20E7FB75AC0A75AD05E5AC20E7FB7541
:1007B000AC0475ADDCE5AC20E7FB22AEA7E4F5A701
:1007C00053C1F4A2033333333354F8FDEF44C44D23
:1007D00042C143F5018EA722752368E4F524FB7A14
:1007E0000079237579037D021206EAE50FFEE51014
:1007F000FF22AF885388AF758B34EF5440FEEF541F
:10080000104E4288227523138F247B007A007923AF
:100810007579017D020206EAE4900017F090001657
:10082000F0900019F0C201C2022275B520E4F50C67
:10083000F509F508F50BF50A43A60122AFA7E4F583
:10084000A7F5C1F5C0F5F4F5F58FA722EF54FC42EA
:1008500011E5114FFD7F0402089EEF4490F5AC00B6
:100860000000AFAD22AFA7E4F5A7D2C48FA72275D1
:10087000F20175D5EE43D51022758E097589204396
:1008800088402275A904E5A930E7FB22E4F5A753C7
:10089000D9BFF5D9228F22120818750D0122EF4415
:1008A00010F5AC8DAD2275E34075E1042275F103BE
:1008B00075D4FC2253C1FC43C1C12275E60175A861
:1008C0008022EF540F420C2253FF7722750D012234
:0108D0002205
:00000001FF
