:020000040000FA
:10000000020454752362E4F5247525FF752601F575
:1000100027F528FB7A0079237579027D061206B54B
:10002000752360752401E4F525FB7A007923757941
:10003000017D030206B541000B000002021D308164
:10004000FD12074090000174AAF0A374FFF0A3749E
:10005000ABF0A37409F0E4A3F0A3F0A3F0A3F0A322
:10006000F0A3F0120812D2037F0112079190000C46
:100070001205E00007A120E4FFFEFDFC90000CE06B
:10008000F8A3E0F9A3E0FAA3E0FBD31205C34024F0
:1000900090000CE0FCA3E0FDA3E0FEA3E024FFFF42
:1000A000EE34FFFEED34FFFDEC34FFFC90000C124B
:1000B00005D480C37511C07F1C1208221208007F6E
:1000C0000C120898750901C290E5086007E4F5086C
:1000D000B28180FCE5096003E4F50990000BE014AF
:1000E000700302018E1470030201A6240260030251
:1000F000020BC29012076B90000C1205E000018603
:10010000A0E4FFFEFDFC90000CE0F8A3E0F9A3E002
:10011000FAA3E0FBD31205C3402490000CE0FCA33B
:10012000E0FDA3E0FEA3E024FFFFEE34FFFEED348C
:10013000FFFDEC34FFFC90000C1205D480C31205C7
:100140005B12064A90001BEEF0A3EFF090001BE05C
:10015000FCA3E0900009F0ECA3F012061190001D42
:10016000EEF0A3EFF090001DE0FCA3E0900005F09E
:10017000ECA3F01207AE90001DEEF0A3EFF090009C
:100180001DE0FCA3E0900007F0ECA3F0807D7F0170
:100190001207DB7E007F017D0A1203C3E4FF120712
:1001A000DB120003806590000C1205E0000222E0E3
:1001B000E4FFFEFDFC90000CE0F8A3E0F9A3E0FAF8
:1001C000A3E0FBD31205C3402490000CE0FCA3E0A5
:1001D000FDA3E0FEA3E024FFFFEE34FFFEED34FFBD
:1001E000FDEC34FFFC90000C1205D480C312083BD8
:1001F000E4F5C1D280D281D2907F801204E043C165
:10020000C1120812D2037F0112079190000BE00483
:10021000F0E0640360030200C9F00200C9C0E0C05E
:10022000F0C083C082C0D075D000C000C001C00241
:10023000C003C004C005C006C00785A72175A7007C
:10024000E5C054F0700302035F24F07003020386DC
:1002500024F0700302031724E070030202F524F077
:10026000700302038624D0606524C0601E24E06011
:100270000302039E900014E0F5C2900016E07003A4
:1002800043C201E5C213920002035930C139300064
:1002900010900015E014F060030203A3C2C1020332
:1002A000A3900016E06015900011E0FF04F0A8078D
:1002B000E6F5C2900016E014F00203A3900015E0EA
:1002C000602BD2C50203A37F0112086B802290002D
:1002D00010E0FF04F0A807A6C2900015E0600C141F
:1002E000F060030203A3C2C10203A3C2C11208A2A9
:1002F000D2C402039420C1030203A3900018E014A7
:10030000F0600F900013E0FF04F0A807E6F5C202CA
:1003100003A37F030203A030C213900019E0FF146F
:10032000F0EF6004D2028005E4FF12086BE5C2130F
:10033000B39200200003200105900017E4F0200094
:1003400018900017E070032001031208A690001314
:10035000E0FF04F0A807E6F5C2C2C5D201804490D0
:100360000012E0F8900017E0FF04F0E82FF8A6C2B2
:1003700090001AE0FF900017E06F70271208A69017
:100380000017E4F0801D300009900017E0600312B0
:1003900008A6C2C4A20292C5C202C20180057F02A1
:1003A00012086BC2C08521A7D007D006D005D004A3
:1003B000D003D002D001D000D0D0D082D083D0F0F2
:1003C000D0E0328D23AB07AA069000207401F0E440
:1003D000A3F0A3F0752466F0900022E0FFC39523FC
:1003E000505EEB2FF582E43AF583E0F5749000213E
:1003F0007408F0900021E0FFD39400403B90001F70
:1004000074C0F0EF14FF74017E00A807088005C3D4
:1004100033CE33CED8F9FFEF5574600790001FE05C
:1004200044FCF090001FE0FFA3E02424F8A607E0BE
:1004300004F0A3E014F080BB900022E004F0809868
:100440007B007A007924E52375F008A404FD757912
:10045000010206B5787FE4F6D8FD75817E02049B23
:1004600002003EE493A3F8E493A34003F68001F274
:1004700008DFF48029E493A3F85407240CC8C3339D
:10048000C4540F4420C8834004F456800146F6DF6C
:10049000E4800B0102040810204080900036E47EC6
:1004A000019360BCA3FF543F30E509541FFEE49361
:1004B000A360010ECF54C025E060A840B8E493A328
:1004C000FAE493A3F8E493A3C8C582C8CAC583CA53
:1004D000F0A3C8C582C8CAC583CADFE9DEE780BE0B
:1004E000A2AFE433F523C2AF85B825AEA975A91430
:1004F00053B6BF75B801E5A930E7FBE50C4FF5B57C
:100500008EA943B64085B52475B5207F0412083006
:10051000EF30E20CE52420E207E5B5422475B52072
:10052000E52420E204EF30E203750901E52420E32D
:1005300004EF30E503750801E52430E103750A0195
:10054000E52430E003750B018525B8E52324FF92EF
:10055000AFE52430E4047FFFDFFE2275231175240C
:10056000117525017B007A0079237579017D0312CD
:1005700006B57523117524607525DD7526C77527A9
:10058000C87B007A0079237579017D051206B5755F
:100590002311752420E4F525F526FB7A00792375CF
:1005A00079017D041206B5752311752431E4F52512
:1005B000752614752701FB7A0079237579017D056D
:1005C0000206B5EB9FF5F0EA9E42F0E99D42F0E8A5
:1005D0009C45F022ECF0A3EDF0A3EEF0A3EFF022A7
:1005E000A8828583F0D083D0821205F71205F71216
:1005F00005F71205F7E473E493A3C583C5F0C5833B
:10060000C8C582C8F0A3C583C5F0C583C8C582C864
:1006100022E4F50D7523E37524807525807D237B09
:100620000E757D03F57E7F80120683E50D60FCE488
:10063000F50D7B0EF57D757E02FD7F80120683E54C
:100640000D60FCE50FFEE50EFF22E4F50D7523E5D8
:100650007524807525807D237B0E757D03F57E7F57
:1006600080120683E50D60FCE4F50D7B0EF57D75CB
:100670007E02FD7F80120683E50D60FCE50FFEE53E
:100680000EFF22AEA7E4F5A7900014EFF090001142
:10069000EDF0900010EBF0900016E57DF090001565
:1006A000E57EF0900019740AF0300104D202800255
:1006B000D2C58EA7228B758A768977AF05E4F50DB2
:1006C000AD777B0E8F7DF57E7FE0120683E50D60B2
:1006D000FCE4F50DAD777B0EF57D85797E7FE0122C
:1006E0000683E50D60FC2275AC0575AD08E5AC2010
:1006F000E7FB75AC0A75AD2CE5AC20E7FB75AC0BE0
:1007000075AD01E5AC20E7FB75AC0475ADDCE5AC7F
:1007100020E7FB22AFA9AEB275A904E5A9C330E773
:1007200001D350F753B27FE4F5CE75B52C0000EE3F
:10073000548042B28FA9E5A9C330E701D350F72214
:1007400085A72312086212088312084512087C123A
:10075000089E1206E71208591207C812084F12081D
:100760008A1208911207148523A7227523107B0093
:100770007A007923E4F5797D011206B5752360E4EA
:10078000F524F525FB7A0079237579017D030206AE
:10079000B5AEA7E4F5A753C1F4A203333333335402
:1007A000F8FDEF44C44D42C143F5018EA7227523E5
:1007B00068E4F524FB7A0079237579037D0212063B
:1007C000B5E50FFEE510FF22AF885388AF758B3477
:1007D000EF5440FEEF54104E4288227523138F24AD
:1007E0007B007A0079237579017D020206B5E490D9
:1007F0000016F0900015F0900018F0C201C202221D
:1008000075B520E4F50CF509F508F50BF50A43A6D6
:100810000122AFA7E4F5A7F5C1F5C0F5F4F5F58F12
:10082000A722EF54FC4211E5114FFD7F040208742A
:10083000EF4490F5AC000000AFAD22AFA7E4F5A700
:10084000D2C48FA72275F20175D5EE43D51022755B
:100850008E097589204388402275A904E5A930E7EF
:10086000FB22E4F5A753D9BFF5D9228F221207EE58
:10087000750D0122EF4410F5AC8DAD2275E3407586
:10088000E1042275F10375D4FC2253C1FC43C1C1BC
:100890002275E60175A88022EF540F420C2253FF07
:0708A0007722750D012222F1
:00000001FF
